:020000040800F2
:100000000080012065030008B5030008B50300085F
:10001000B5030008B5030008B503000800000000A0
:10002000000000000000000000000000B503000810
:10003000B503000800000000B5030008B503000880
:1000400000000000B5030008B5030008B503000870
:10005000B5030008B5030008B5030008B5030008A0
:10006000B5030008B5030008B5030008B503000890
:10007000B5030008B5030008B5030008B503000880
:10008000B5030008B5030008B50300080000000030
:10009000000000000000000000000000B5030008A0
:1000A000B5030008B5030008B5030008B503000850
:1000B000B5030008B5030008B5030008B503000840
:1000C000B5030008B5030008B5030008B503000830
:1000D000B5030008B5030008B503000800000000E0
:1000E000B5030008B5030008B503000800000000D0
:1000F000000000000000000000000000B503000840
:1001000000000000B5030008B5030008B5030008AF
:1001100000000000000000000000000000000000DF
:10012000B5030008B5030008B5030008B5030008CF
:10013000B5030008000000000000000000000000FF
:10014000000000000000000000000000B5030008EF
:10015000B5030008B5030008B5030008B50300089F
:10016000B5030008B503000800000000000000000F
:10017000000000000000000000000000000000007F
:10018000000000000000000000000000000000006F
:04019000B5030008AB
:1001940010B5054C237833B9044B13B10448AFF3BD
:1001A40000800123237010BD140000200000000013
:1001B4006007000808B5034B1BB103490348AFF3BC
:1001C400008008BD0000000018000020600700083F
:1001D40080B500AF00F01AF80D210A4800F050F87D
:1001E4000346002B08D1052000F061F80122052107
:1001F400054800F015F8EFE700220521024800F059
:100204000FF8E9E7000802400000024080B500AFA3
:1002140000F006F900F088F800F06AF800BF80BD2D
:1002240080B483B000AF78600B46FB701346BB709C
:10023400BB78012B0DD17B681B8B9BB21AB2FB7868
:10024400012101FA03F31BB213431BB29AB27B6878
:100254001A83BB78002B0DD17B685B8B9BB21AB2DF
:10026400FB78012101FA03F31BB213431BB29AB2C8
:100274007B685A8300BF0C37BD465DF8047B70472A
:1002840080B485B000AF786039607B681A693B68D8
:1002940022FA03F3FB60FB6803F00103FB60FB68D5
:1002A400DBB218461437BD465DF8047B704780B452
:1002B40085B000AF78600023FB600DE00023BB60D5
:1002C40002E0BB680133BB60BB6841F287329342F2
:1002D400F7D9FB680133FB60FA687B689A42EDD377
:1002E40000BF00BF1437BD465DF8047B70470000B3
:1002F40080B582B000AF0121012000F0EBF920238A
:100304003B6001233B7102237B710023BB710223F9
:10031400FB713B461946034800F04EF900BF08370D
:10032400BD4680BD0000024080B582B000AF01210F
:10033400042000F0CFF94FF400533B6000233B71DD
:1003440002237B710123FB713B461946034800F0ED
:1003540033F900BF0837BD4680BD00BF0008024026
:100364000D48854600F026F80C480D490D4A002337
:1003740002E0D458C4500433C4188C42F9D30A4A56
:100384000A4C002301E013600432A242FBD300F0C4
:10039400C1F9FFF71DFFFEE70080012000000020E7
:1003A4001400002080070008140000203000002002
:1003B400FEE7000080B500AF164BD3F88830154A2D
:1003C40043F47003C2F88830134B1B68124A43F09D
:1003D40001031360104B00229A600F4B1B680E4AF6
:1003E40023F0847323F4803313600B4B0B4A5A605D
:1003F400094B1B68084A23F480231360064B002230
:10040400DA6000F089F8034B4FF000629A6000BF95
:1004140080BD00BF00ED00E0003802401030002431
:1004240080B487B000AF00233B6100237B610223CB
:10043400FB600023BB6002237B60324B9B6803F0AC
:100444000C033B613B69042B07D0082B09D0002B1C
:100454003DD12D4B2D4A1A603DE02B4B2C4A1A609E
:1004640039E0284B5B689B0D03F00103BB60254B0F
:100474005B6803F03F037B60BB68002B0CD0244A0D
:100484007B68B2FBF3F31F4A52689209C2F3080275
:1004940002FB03F37B610BE01C4A7B68B2FBF3F3C2
:1004A400184A52689209C2F3080202FB03F37B6103
:1004B400144B5B681B0C03F0030301335B00FB600C
:1004C4007A69FB68B2FBF3F30F4A136003E00E4B47
:1004D4000E4A1A6000BF0B4B9B681B0903F00F0305
:1004E4000C4AD35CDBB23B61074B1A683B6922FAC6
:1004F40003F3054A136000BF1C37BD465DF8047B57
:10050400704700BF00380240000000200024F400BF
:1005140040787D010400002080B400AF224B1B6CA6
:10052400214A43F080531364204B1B681F4A43F451
:10053400404313601C4B1C4A9B6893601A4B1A4A35
:100544009B689360184B9B68174A43F480539360ED
:10055400154B174A5A60144B1B68134A43F08073B7
:10056400136000BF104B1B6803F00073002BF9D01D
:10057400104B40F202621A600B4B9B680A4A23F04C
:1005840003039360084B9B68074A43F0020393609C
:1005940000BF054B9B6803F00C03082BF9D100BF87
:1005A400BD465DF8047B704700380240007000408F
:1005B40010540108003C024080B487B000AF78605A
:1005C400396000237B6100233B610023FB6000232F
:1005D4007B6176E001227B6902FA03F33B613B68AD
:1005E4001B683A691340FB60FA683B699A4265D11B
:1005F4007B681A687B695B00032101FA03F3DB4320
:100604001A407B681A607B681A683B681B79194634
:100614007B695B0001FA03F31A437B681A603B6849
:100624001B79012B03D03B681B79022B2ED17B68ED
:100634009A687B695B00032101FA03F3DB431A40E8
:100644007B689A607B689A683B685B7919467B692A
:100654005B0001FA03F31A437B689A607B685A686B
:100664007B699BB2194601238B40DB431A407B68AC
:100674005A607B685B683A68927911467A6992B2EB
:1006840001FA02F292B21A437B685A607B68DA6814
:100694007B699BB25B00032101FA03F3DB431A403D
:1006A4007B68DA607B68DA683B68DB7919467B69CA
:1006B4005B0001FA03F31A437B68DA607B69013358
:1006C4007B617B690F2B85D900BF1C37BD465DF864
:1006D400047B704780B483B000AF78600B46FB7036
:1006E400FB78002B06D00A4B1A6B09497B6813432D
:1006F4000B6306E0064B1A6B7B68DB43044913402B
:100704000B6300BF0C37BD465DF8047B704700BF28
:100714000038024070B50D4D0D4C641BA41000262A
:10072400A64209D10B4D0C4C00F018F8641BA41020
:100734000026A64205D170BD55F8043B9847013602
:10074400EEE755F8043B98470136F2E778070008CE
:1007540078070008780700087C070008F8B500BF90
:10076400F8BC08BC9E467047F8B500BFF8BC08BC8E
:040774009E467047E6
:04077800B9010008BB
:04077C0095010008DB
:1007800000BD01050000000000000000010203049C
:040790000607080947
:040000050800036587
:00000001FF
