:020000040800F2
:100000000080012059030008A9030008A903000883
:10001000A9030008A9030008A903000800000000C4
:10002000000000000000000000000000A90300081C
:10003000A903000800000000A9030008A9030008A4
:1000400000000000A9030008A9030008A903000894
:10005000A9030008A9030008A9030008A9030008D0
:10006000A9030008D5010008A9030008A903000896
:10007000A9030008A9030008A9030008A9030008B0
:10008000A9030008A9030008A90300080000000054
:10009000000000000000000000000000A9030008AC
:1000A000A9030008A9030008A9030008A903000880
:1000B000A9030008A9030008A9030008A903000870
:1000C000A9030008A9030008A9030008A903000860
:1000D000A9030008A9030008A90300080000000004
:1000E000A9030008A9030008A903000800000000F4
:1000F000000000000000000000000000A90300084C
:1001000000000000A9030008A9030008A9030008D3
:1001100000000000000000000000000000000000DF
:10012000A9030008A9030008A9030008A9030008FF
:10013000A90300080000000000000000000000000B
:10014000000000000000000000000000A9030008FB
:10015000A9030008A9030008A9030008A9030008CF
:10016000A9030008A9030008000000000000000027
:10017000000000000000000000000000000000007F
:10018000000000000000000000000000000000006F
:04019000A9030008B7
:1001940010B5054C237833B9044B13B10448AFF3BD
:1001A40000800123237010BD140000200000000013
:1001B400140A000808B5034B1BB103490348AFF305
:1001C400008008BD0000000018000020140A000888
:1001D40080B500AF082000F0BDFA0346012B09D119
:1001E400074B1B78002B0CBF01230023DBB21A46FC
:1001F400034B1A70082000F0C7FA00BF80BD00BF8F
:100204003000002080B500AF00F004F900F018F8C9
:1002140000F032F8084B1B78002B07D100F06AF885
:1002240000220121054800F07BF8F3E701220121B7
:10023400024800F075F8EDE73000002000000240AD
:1002440080B582B000AF0121012000F03BFB012307
:100254003B710023BB7101233B600223FB7102232A
:100264007B713B461946034800F09EFA00BF0837ED
:10027400BD4680BD0000024080B586B000AF0121BC
:10028400022000F01FFB00233B7508233B61012380
:10029400FB7502237B7507F110031946144800F01F
:1002A40083FA01214FF4804000F02CFB032101204C
:1002B40000F048FB0823BB600123BB7300233B739E
:1002C4000C237B7307F10803184600F0D1F90923C6
:1002D4003B710123FB7100237B710023BB713B1D28
:1002E400184600F063F900BF1837BD4680BD00BF53
:1002F4000004024080B483B000AF00237B6002E0BE
:100304007B6801337B607B68044A9342F8D900BF61
:1003140000BF0C37BD465DF8047B70471FA1070082
:1003240080B483B000AF78600B467B8013467B704B
:100334007B78012B02D17B687A881A837B78002B27
:1003440002D17B687A885A8300BF0C37BD465DF8BA
:10035400047B70470D48854600F026F80C480D498B
:100364000D4A002302E0D458C4500433C4188C420C
:10037400F9D30A4A0A4C002301E013600432A24272
:10038400FBD300F021FBFFF73DFFFEE700800120D7
:100394000000002014000020340A0008140000208B
:1003A40034000020FEE7000080B500AF164BD3F800
:1003B4008830154A43F47003C2F88830134B1B6825
:1003C400124A43F001031360104B00229A600F4B52
:1003D4001B680E4A23F0847323F4803313600B4BA1
:1003E4000B4A5A60094B1B68084A23F480231360A4
:1003F400064B0022DA6000F089F8034B4FF00062EC
:100404009A6000BF80BD00BF00ED00E000380240EC
:100414001030002480B487B000AF00233B61002378
:100424007B610223FB600023BB6002237B60324BB1
:100434009B6803F00C033B613B69042B07D0082B3A
:1004440009D0002B3DD12D4B2D4A1A603DE02B4B9A
:100454002C4A1A6039E0284B5B689B0D03F00103BA
:10046400BB60254B5B6803F03F037B60BB68002BDC
:100474000CD0244A7B68B2FBF3F31F4A52689209FA
:10048400C2F3080202FB03F37B610BE01C4A7B68A6
:10049400B2FBF3F3184A52689209C2F3080202FB52
:1004A40003F37B61144B5B681B0C03F00303013300
:1004B4005B00FB607A69FB68B2FBF3F30F4A1360DD
:1004C40003E00E4B0E4A1A6000BF0B4B9B681B09DE
:1004D40003F00F030C4AD35CDBB23B61074B1A6891
:1004E4003B6922FA03F3054A136000BF1C37BD467B
:1004F4005DF8047B704700BF003802400000002014
:100504000024F40040787D010400002080B400AF92
:10051400224B1B6C214A43F080531364204B1B680D
:100524001F4A43F4404313601C4B1C4A9B6893606E
:100534001A4B1A4A9B689360184B9B68174A43F4FA
:1005440080539360154B174A5A60144B1B68134A27
:1005540043F08073136000BF104B1B6803F00073FB
:10056400002BF9D0104B40F202621A600B4B9B68CF
:100574000A4A23F003039360084B9B68074A43F03D
:100584000203936000BF054B9B6803F00C03082B28
:10059400F9D100BFBD465DF8047B704700380240C6
:1005A4000070004010540108003C024080B485B043
:1005B40000AF78600023FB730023BB730F237B73AE
:1005C4007B68DB78002B39D0274BDB68DB431B0AC5
:1005D400DBB203F00703FB73FB7BC3F10403BB73C0
:1005E4007A7BFB7B42FA03F37B737B685B781A4666
:1005F400BB7B02FA03F3FB737B689A787B7B134023
:10060400DAB2FB7B1343FB73FB7B1B01FB73174ABF
:100614007B681B781344FA7B83F800237B681B7880
:1006240003F01F0311497A6812785209D2B21046B6
:10063400012202FA03F341F820300FE07B681B78B3
:1006440003F01F0309497A6812785209D2B210469E
:1006540001229A4000F1200341F8232000BF1437FF
:10066400BD465DF8047B704700ED00E000E100E06A
:1006740080B485B000AF78600023FB60344BFB602E
:100684007B689B79002B4FD0314B1A687B681B68C1
:10069400DB432F4913400B602D4B5A687B681B6862
:1006A400DB432B4913404B607B681B791A46FB687C
:1006B4001344FB60FB6819687B681A68FB680A438B
:1006C4001A60234B9A687B681B68DB4320491340FC
:1006D4008B601F4BDA687B681B68DB431C49134043
:1006E400CB607B685B79102B0ED1194B9A687B68C1
:1006F4001B68174913438B60154BDA687B681B68CA
:1007040013491343CB601DE0114BFB607B685B799D
:100714001A46FB681344FB60FB6819687B681A6817
:10072400FB680A431A600DE07B681B791A46FB6874
:100734001344FB60FB6819687B681B68DA43FB6839
:100744000A401A6000BF1437BD465DF8047B704749
:10075400003C014080B485B000AF78600023FB7397
:10076400084B5A697B681340002B02D00123FB73AA
:1007740001E00023FB73FB7B18461437BD465DF88C
:10078400047B7047003C014080B483B000AF7860C4
:10079400044A7B68536100BF0C37BD465DF8047B97
:1007A400704700BF003C014080B487B000AF786060
:1007B400396000237B6100233B610023FB6000233D
:1007C4007B6176E001227B6902FA03F33B613B68BB
:1007D4001B683A691340FB60FA683B699A4265D129
:1007E4007B681A687B695B00032101FA03F3DB432E
:1007F4001A407B681A607B681A683B681B79194643
:100804007B695B0001FA03F31A437B681A603B6857
:100814001B79012B03D03B681B79022B2ED17B68FB
:100824009A687B695B00032101FA03F3DB431A40F6
:100834007B689A607B689A683B685B7919467B6938
:100844005B0001FA03F31A437B689A607B685A6879
:100854007B699BB2194601238B40DB431A407B68BA
:100864005A607B685B683A68927911467A6992B2F9
:1008740001FA02F292B21A437B685A607B68DA6822
:100884007B699BB25B00032101FA03F3DB431A404B
:100894007B68DA607B68DA683B68DB7919467B69D8
:1008A4005B0001FA03F31A437B68DA607B69013366
:1008B4007B617B690F2B85D900BF1C37BD465DF872
:1008C400047B704780B483B000AF78600B46FB7044
:1008D400FB78002B06D00A4B1A6B09497B6813433B
:1008E4000B6306E0064B1A6B7B68DB430449134039
:1008F4000B6300BF0C37BD465DF8047B704700BF37
:100904000038024080B483B000AF78600B46FB70BF
:10091400FB78002B06D00A4B5A6C09497B681343B9
:100924004B6406E0064B5A6C7B68DB430449134076
:100934004B6400BF0C37BD465DF8047B704700BFB5
:100944000038024080B485B000AF03460A46FB710C
:100954001346BB710023FB60BB7903F003039B00C8
:100964000F2202FA03F3FB60164ABB799B08DBB241
:10097400023352F82320FB68DB431248B979890813
:10098400C9B21A408B1C40F823200E4ABB799B083D
:10099400DBB2023352F82320F979BB7903F0030365
:1009A4009B0001FA03F30748B9798908C9B21A43CD
:1009B4008B1C40F8232000BF1437BD465DF8047B30
:1009C400704700BF0038014070B50D4D0D4C641BDD
:1009D400A4100026A64209D10B4D0C4C00F018F8C7
:1009E400641BA4100026A64205D170BD55F8043B33
:1009F40098470136EEE755F8043B98470136F2E78D
:100A04002C0A00082C0A00082C0A0008300A0008E6
:100A1400F8B500BFF8BC08BC9E467047F8B500BFE7
:080A2400F8BC08BC9E467047B7
:040A2C00B901000804
:040A30009501000824
:100A340000BD0105000000000000000001020304E5
:040A44000607080990
:040000050800035993
:00000001FF
